{
  "contractName": "WhatRocks",
  "abi": [
    {
      "inputs": [],
      "payable": false,
      "stateMutability": "nonpayable",
      "type": "constructor"
    },
    {
      "constant": false,
      "inputs": [
        {
          "name": "tokenSupply",
          "type": "uint256"
        }
      ],
      "name": "mint",
      "outputs": [],
      "payable": true,
      "stateMutability": "payable",
      "type": "function"
    },
    {
      "constant": false,
      "inputs": [
        {
          "name": "to",
          "type": "address"
        },
        {
          "name": "tokens",
          "type": "uint256"
        },
        {
          "name": "brandOwner",
          "type": "address"
        }
      ],
      "name": "distribute",
      "outputs": [],
      "payable": false,
      "stateMutability": "nonpayable",
      "type": "function"
    },
    {
      "constant": false,
      "inputs": [
        {
          "name": "to",
          "type": "address"
        },
        {
          "name": "tokens",
          "type": "uint256"
        },
        {
          "name": "brandOwner",
          "type": "address"
        }
      ],
      "name": "transfer",
      "outputs": [],
      "payable": false,
      "stateMutability": "nonpayable",
      "type": "function"
    },
    {
      "constant": false,
      "inputs": [
        {
          "name": "tokens",
          "type": "uint256"
        },
        {
          "name": "brandOwner",
          "type": "address"
        }
      ],
      "name": "redeem",
      "outputs": [],
      "payable": false,
      "stateMutability": "nonpayable",
      "type": "function"
    },
    {
      "constant": false,
      "inputs": [
        {
          "name": "addr",
          "type": "address"
        },
        {
          "name": "brandOwner",
          "type": "address"
        }
      ],
      "name": "addToWhitelist",
      "outputs": [],
      "payable": false,
      "stateMutability": "nonpayable",
      "type": "function"
    }
  ],
  "bytecode": "0x6060604052341561000f57600080fd5b33600560006101000a81548173ffffffffffffffffffffffffffffffffffffffff021916908373ffffffffffffffffffffffffffffffffffffffff160217905550610aac8061005f6000396000f30060606040526004361061006d576000357c0100000000000000000000000000000000000000000000000000000000900463ffffffff16806357518243146100725780637bde82f2146100ca578063a0712d681461010c578063dbba0f0114610124578063e74915d014610185575b600080fd5b341561007d57600080fd5b6100c8600480803573ffffffffffffffffffffffffffffffffffffffff1690602001909190803573ffffffffffffffffffffffffffffffffffffffff169060200190919050506101e6565b005b34156100d557600080fd5b61010a600480803590602001909190803573ffffffffffffffffffffffffffffffffffffffff169060200190919050506102b9565b005b61012260048080359060200190919050506104ff565b005b341561012f57600080fd5b610183600480803573ffffffffffffffffffffffffffffffffffffffff1690602001909190803590602001909190803573ffffffffffffffffffffffffffffffffffffffff16906020019091905050610662565b005b341561019057600080fd5b6101e4600480803573ffffffffffffffffffffffffffffffffffffffff1690602001909190803590602001909190803573ffffffffffffffffffffffffffffffffffffffff169060200190919050506108a2565b005b8073ffffffffffffffffffffffffffffffffffffffff163373ffffffffffffffffffffffffffffffffffffffff1614151561022057600080fd5b6001600360008373ffffffffffffffffffffffffffffffffffffffff1673ffffffffffffffffffffffffffffffffffffffff16815260200190815260200160002060008473ffffffffffffffffffffffffffffffffffffffff1673ffffffffffffffffffffffffffffffffffffffff16815260200190815260200160002060006101000a81548160ff0219169083151502179055505050565b600060011515600360008473ffffffffffffffffffffffffffffffffffffffff1673ffffffffffffffffffffffffffffffffffffffff16815260200190815260200160002060003373ffffffffffffffffffffffffffffffffffffffff1673ffffffffffffffffffffffffffffffffffffffff16815260200190815260200160002060009054906101000a900460ff16151514151561035757600080fd5b82600160008473ffffffffffffffffffffffffffffffffffffffff1673ffffffffffffffffffffffffffffffffffffffff16815260200190815260200160002060003373ffffffffffffffffffffffffffffffffffffffff1673ffffffffffffffffffffffffffffffffffffffff16815260200190815260200160002060008282540392505081905550600260008373ffffffffffffffffffffffffffffffffffffffff1673ffffffffffffffffffffffffffffffffffffffff16815260200190815260200160002054836000808573ffffffffffffffffffffffffffffffffffffffff1673ffffffffffffffffffffffffffffffffffffffff168152602001908152602001600020540281151561046b57fe5b049050806000808473ffffffffffffffffffffffffffffffffffffffff1673ffffffffffffffffffffffffffffffffffffffff168152602001908152602001600020600082825403925050819055503373ffffffffffffffffffffffffffffffffffffffff166108fc829081150290604051600060405180830381858888f1935050505015156104fa57600080fd5b505050565b80600160003373ffffffffffffffffffffffffffffffffffffffff1673ffffffffffffffffffffffffffffffffffffffff16815260200190815260200160002060003373ffffffffffffffffffffffffffffffffffffffff1673ffffffffffffffffffffffffffffffffffffffff1681526020019081526020016000208190555080600260003373ffffffffffffffffffffffffffffffffffffffff1673ffffffffffffffffffffffffffffffffffffffff16815260200190815260200160002081905550346000803373ffffffffffffffffffffffffffffffffffffffff1673ffffffffffffffffffffffffffffffffffffffff168152602001908152602001600020819055506001600460003373ffffffffffffffffffffffffffffffffffffffff1673ffffffffffffffffffffffffffffffffffffffff16815260200190815260200160002060006101000a81548160ff02191690831515021790555050565b60011515600360008373ffffffffffffffffffffffffffffffffffffffff1673ffffffffffffffffffffffffffffffffffffffff16815260200190815260200160002060008573ffffffffffffffffffffffffffffffffffffffff1673ffffffffffffffffffffffffffffffffffffffff16815260200190815260200160002060009054906101000a900460ff1615151415156106fe57600080fd5b81600160008373ffffffffffffffffffffffffffffffffffffffff1673ffffffffffffffffffffffffffffffffffffffff16815260200190815260200160002060003373ffffffffffffffffffffffffffffffffffffffff1673ffffffffffffffffffffffffffffffffffffffff168152602001908152602001600020541015151561078957600080fd5b81600160008373ffffffffffffffffffffffffffffffffffffffff1673ffffffffffffffffffffffffffffffffffffffff16815260200190815260200160002060003373ffffffffffffffffffffffffffffffffffffffff1673ffffffffffffffffffffffffffffffffffffffff1681526020019081526020016000206000828254039250508190555081600160008373ffffffffffffffffffffffffffffffffffffffff1673ffffffffffffffffffffffffffffffffffffffff16815260200190815260200160002060008573ffffffffffffffffffffffffffffffffffffffff1673ffffffffffffffffffffffffffffffffffffffff16815260200190815260200160002060008282540192505081905550505050565b8073ffffffffffffffffffffffffffffffffffffffff163373ffffffffffffffffffffffffffffffffffffffff161415156108dc57600080fd5b81600160008373ffffffffffffffffffffffffffffffffffffffff1673ffffffffffffffffffffffffffffffffffffffff16815260200190815260200160002060003373ffffffffffffffffffffffffffffffffffffffff1673ffffffffffffffffffffffffffffffffffffffff168152602001908152602001600020541015151561096757600080fd5b81600160008373ffffffffffffffffffffffffffffffffffffffff1673ffffffffffffffffffffffffffffffffffffffff16815260200190815260200160002060003373ffffffffffffffffffffffffffffffffffffffff1673ffffffffffffffffffffffffffffffffffffffff1681526020019081526020016000206000828254039250508190555081600160008373ffffffffffffffffffffffffffffffffffffffff1673ffffffffffffffffffffffffffffffffffffffff16815260200190815260200160002060008573ffffffffffffffffffffffffffffffffffffffff1673ffffffffffffffffffffffffffffffffffffffff168152602001908152602001600020600082825401925050819055505050505600a165627a7a7230582015bd2c8417e9f465a38c5c218f6b3aa2e5f22e5173d4319f4d2b473656a823490029",
  "source": "pragma solidity ^0.4.17;\n\ncontract WhatRocks {\n\n  // Ether supply associated with each brand address\n  mapping(address => uint256) charityEthSupply;\n  // Token ledger associated with each brand address\n  mapping(address => mapping (address => uint256)) charityToken;\n  // Token supply associated with each brand address\n  mapping(address => uint) charityTokenSupply;\n  // Whitelists associated with each brand address\n  mapping(address => mapping(address => bool)) whitelist;\n  // List of all brand owners\n  mapping(address => bool) brandOwners;\n  // Variable for storing the owner of the contract\n  address owner;\n\n  function WhatRocks() public {\n    // Sets the owner to us\n    owner = msg.sender;\n  }\n\n  // Calls when the contract is sent ETH.\n  function mint(uint tokenSupply) public payable {\n\n    // Instantiates and sets all of the tokenSupply to be owned by brandOwner\n    charityToken[msg.sender][msg.sender] = tokenSupply;\n\n    // Sets the other variables for the instantiated token balances\n    charityTokenSupply[msg.sender] = tokenSupply;\n    charityEthSupply[msg.sender] = msg.value;\n    brandOwners[msg.sender] = true;\n\n  }\n\n  //Allows the brandOwner to distribute tokens to a certain address\n  function distribute (address to, uint256 tokens, address brandOwner) public {\n    // Only allows BrandOwner to send tokens; requires there to be enough tokens to send\n    require(msg.sender == brandOwner);\n    require(charityToken[brandOwner][msg.sender] >= tokens);\n\n    // If it is, then update the ledger for the tokens\n    charityToken[brandOwner][msg.sender] -= tokens;\n    charityToken[brandOwner][to] += tokens;\n  }\n\n  //Allows consumers to transfer\n  function transfer (address to, uint256 tokens, address brandOwner) public {\n    // Checks whether or not there is actually the amount available in the address\n    // Checks whether or not the address \"to\" is whitelisted\n    require(whitelist[brandOwner][to] == true);\n    require(charityToken[brandOwner][msg.sender] >= tokens);\n\n    // If both are true, then update the ledger for the tokens\n    charityToken[brandOwner][msg.sender] -= tokens;\n    charityToken[brandOwner][to] += tokens;\n  }\n\n  function redeem (uint tokens, address brandOwner) public {\n    // Checks whether or not the address is on the whitelist / is a charity\n    require(whitelist[brandOwner][msg.sender] == true);\n\n    // If it's on the whitelist then, update the token ledger - only subtract\n    charityToken[brandOwner][msg.sender] -= tokens;\n\n    // Transfer a certain amount of ETH to the address\n    // Calculates the amount of ETH to transfer\n    uint256 ethToTransfer = charityEthSupply[brandOwner] * tokens / charityTokenSupply[brandOwner];\n    charityEthSupply[brandOwner] -= ethToTransfer;\n    msg.sender.transfer(ethToTransfer);\n  }\n\n  //Add an entry to the\n  function addToWhitelist (address addr, address brandOwner) public {\n    require(msg.sender == brandOwner);\n    whitelist[brandOwner][addr] = true;\n  }\n\n}\n",
  "sourcePath": "/Users/wilson/Dropbox/Personal Work/writing/crypto/BlockHack 2018/contracts/WhatRocks.sol",
  "compiler": {
    "name": "solc",
    "version": "0.4.21+commit.dfe3193c.Emscripten.clang"
  },
  "schemaVersion": "2.0.0",
  "updatedAt": "2018-04-22T00:33:48.954Z"
}