{
  "contractName": "WhatRocks",
  "abi": [
    {
      "inputs": [],
      "payable": false,
      "stateMutability": "nonpayable",
      "type": "constructor"
    },
    {
      "constant": false,
      "inputs": [
        {
          "name": "tokenSupply",
          "type": "uint256"
        }
      ],
      "name": "mint",
      "outputs": [],
      "payable": true,
      "stateMutability": "payable",
      "type": "function"
    },
    {
      "constant": false,
      "inputs": [
        {
          "name": "to",
          "type": "address"
        },
        {
          "name": "tokens",
          "type": "uint256"
        }
      ],
      "name": "distribute",
      "outputs": [],
      "payable": false,
      "stateMutability": "nonpayable",
      "type": "function"
    },
    {
      "constant": false,
      "inputs": [
        {
          "name": "to",
          "type": "address"
        },
        {
          "name": "tokens",
          "type": "uint256"
        }
      ],
      "name": "transfer",
      "outputs": [],
      "payable": false,
      "stateMutability": "nonpayable",
      "type": "function"
    },
    {
      "constant": false,
      "inputs": [
        {
          "name": "tokens",
          "type": "uint256"
        }
      ],
      "name": "redeem",
      "outputs": [],
      "payable": false,
      "stateMutability": "nonpayable",
      "type": "function"
    },
    {
      "constant": false,
      "inputs": [
        {
          "name": "addr",
          "type": "address"
        }
      ],
      "name": "addToWhitelist",
      "outputs": [],
      "payable": false,
      "stateMutability": "nonpayable",
      "type": "function"
    }
  ],
  "bytecode": "0x6060604052341561000f57600080fd5b33600560006101000a81548173ffffffffffffffffffffffffffffffffffffffff021916908373ffffffffffffffffffffffffffffffffffffffff1602179055506107288061005f6000396000f30060606040526004361061006d576000357c0100000000000000000000000000000000000000000000000000000000900463ffffffff168063a0712d6814610072578063a9059cbb1461008a578063db006a75146100cc578063e43252d7146100ef578063fb93210814610128575b600080fd5b610088600480803590602001909190505061016a565b005b341561009557600080fd5b6100ca600480803573ffffffffffffffffffffffffffffffffffffffff1690602001909190803590602001909190505061023c565b005b34156100d757600080fd5b6100ed600480803590602001909190505061038a565b005b34156100fa57600080fd5b610126600480803573ffffffffffffffffffffffffffffffffffffffff169060200190919050506104fd565b005b341561013357600080fd5b610168600480803573ffffffffffffffffffffffffffffffffffffffff169060200190919080359060200190919050506105b4565b005b33600460006101000a81548173ffffffffffffffffffffffffffffffffffffffff021916908373ffffffffffffffffffffffffffffffffffffffff160217905550346000803373ffffffffffffffffffffffffffffffffffffffff1673ffffffffffffffffffffffffffffffffffffffff168152602001908152602001600020819055508060038190555080600160003373ffffffffffffffffffffffffffffffffffffffff1673ffffffffffffffffffffffffffffffffffffffff1681526020019081526020016000208190555050565b6001600260008473ffffffffffffffffffffffffffffffffffffffff1673ffffffffffffffffffffffffffffffffffffffff16815260200190815260200160002060006101000a81548160ff0219169083151502179055151561029e57600080fd5b80600160003373ffffffffffffffffffffffffffffffffffffffff1673ffffffffffffffffffffffffffffffffffffffff16815260200190815260200160002054101515156102ec57600080fd5b80600160003373ffffffffffffffffffffffffffffffffffffffff1673ffffffffffffffffffffffffffffffffffffffff1681526020019081526020016000206000828254039250508190555080600160008473ffffffffffffffffffffffffffffffffffffffff1673ffffffffffffffffffffffffffffffffffffffff168152602001908152602001600020600082825401925050819055505050565b60006001600260003373ffffffffffffffffffffffffffffffffffffffff1673ffffffffffffffffffffffffffffffffffffffff16815260200190815260200160002060006101000a81548160ff021916908315150217905515156103ee57600080fd5b81600160003373ffffffffffffffffffffffffffffffffffffffff1673ffffffffffffffffffffffffffffffffffffffff168152602001908152602001600020600082825403925050819055506003548281151561044857fe5b04905080600080600460009054906101000a900473ffffffffffffffffffffffffffffffffffffffff1673ffffffffffffffffffffffffffffffffffffffff1673ffffffffffffffffffffffffffffffffffffffff168152602001908152602001600020600082825403925050819055503373ffffffffffffffffffffffffffffffffffffffff166108fc829081150290604051600060405180830381858888f1935050505015156104f957600080fd5b5050565b600460009054906101000a900473ffffffffffffffffffffffffffffffffffffffff1673ffffffffffffffffffffffffffffffffffffffff163373ffffffffffffffffffffffffffffffffffffffff1614151561055957600080fd5b6001600260008373ffffffffffffffffffffffffffffffffffffffff1673ffffffffffffffffffffffffffffffffffffffff16815260200190815260200160002060006101000a81548160ff02191690831515021790555050565b600460009054906101000a900473ffffffffffffffffffffffffffffffffffffffff1673ffffffffffffffffffffffffffffffffffffffff163373ffffffffffffffffffffffffffffffffffffffff1614151561061057600080fd5b80600160003373ffffffffffffffffffffffffffffffffffffffff1673ffffffffffffffffffffffffffffffffffffffff168152602001908152602001600020541015151561065e57600080fd5b80600160003373ffffffffffffffffffffffffffffffffffffffff1673ffffffffffffffffffffffffffffffffffffffff1681526020019081526020016000206000828254039250508190555080600160008473ffffffffffffffffffffffffffffffffffffffff1673ffffffffffffffffffffffffffffffffffffffff1681526020019081526020016000206000828254019250508190555050505600a165627a7a723058201d0dcee9a6635d2093be8626e5db73aeecdb35d01c13756c461b55319d47dee30029",
  "source": "pragma solidity ^0.4.17;\n\ncontract WhatRocks {\n\n  // Ether supply in contract, associated with each brand\n  mapping(address => uint256) charityFund;\n  mapping(address => uint256) balances;\n  mapping(address => bool) whitelist;\n  uint charityTokenSupply;\n  address brandOwner;\n  address owner;\n\n  function WhatRocks() public {\n    owner = msg.sender;\n  }\n\n  // Calls when the contract is sent ETH.\n  function mint(uint tokenSupply) public payable {\n    // Set the brandOwner to the person who calls the address\n    brandOwner = msg.sender;\n\n    // Stores the amount of ETH associated with each brand address\n    charityFund[msg.sender] = msg.value;\n\n    // Sets the other variables for the instantiated token balances\n    charityTokenSupply = tokenSupply;\n\n    // Set all of the tokenSupply to be owned by brandOwner\n    balances[msg.sender] = tokenSupply;\n  }\n\n  //Allows the brandOwner to distribute tokens to a certain address\n  function distribute (address to, uint256 tokens) public {\n    // Require msg.sender to be the\n    // Require there to be enough\n    require(msg.sender == brandOwner);\n    require(balances[msg.sender] >= tokens);\n\n    // If it is, then send the recipient\n    balances[msg.sender] -= tokens;\n    balances[to] += tokens;\n  }\n\n  //Allows consumers to transfer\n  function transfer (address to, uint256 tokens) public {\n    // Checks whether or not there is actually the amount available in the address\n    // Checks whether or not the address \"to\" is whitelisted\n    require(whitelist[to] = true);\n    require(balances[msg.sender] >= tokens);\n\n    // If both are true, transfer the\n    balances[msg.sender] -= tokens;\n    balances[to] += tokens;\n  }\n\n  function redeem (uint tokens) public {\n    // Checks whether or not the address is on the whitelist\n    require(whitelist[msg.sender] = true);\n\n    // If it's on the whitelist then...\n    // Decrease the amount of tokens on the mapping by the amount - do we need to destroy or does it not matter?\n    balances[msg.sender] -= tokens;\n\n    // Transfer a certain amount of ETH to the address\n    // Transfer the tokens to a 00x address\n    uint256 ethToTransfer = tokens/charityTokenSupply;\n    charityFund[brandOwner] -= ethToTransfer;\n    msg.sender.transfer(ethToTransfer);\n\n  }\n\n  //Add an entry to the\n  function addToWhitelist (address addr) public {\n    require(msg.sender == brandOwner);\n    whitelist[addr] = true;\n  }\n\n\n\n}\n",
  "sourcePath": "/Users/wilson/Dropbox/Personal Work/writing/crypto/BlockHack 2018/contracts/WhatRocks.sol",
  "compiler": {
    "name": "solc",
    "version": "0.4.21+commit.dfe3193c.Emscripten.clang"
  },
  "schemaVersion": "2.0.0",
  "updatedAt": "2018-04-21T18:55:32.578Z"
}